{
  "_format": "hh-sol-artifact-1",
  "contractName": "FakeNews",
  "sourceName": "contracts/voting.sol",
  "abi": [
    {
      "inputs": [
        {
          "internalType": "uint256",
          "name": "id",
          "type": "uint256"
        }
      ],
      "name": "DownVote",
      "outputs": [],
      "stateMutability": "payable",
      "type": "function"
    },
    {
      "inputs": [
        {
          "internalType": "uint256",
          "name": "id",
          "type": "uint256"
        }
      ],
      "name": "UpVote",
      "outputs": [],
      "stateMutability": "payable",
      "type": "function"
    },
    {
      "inputs": [
        {
          "internalType": "address payable",
          "name": "AgencyName",
          "type": "address"
        },
        {
          "internalType": "string",
          "name": "_title",
          "type": "string"
        },
        {
          "internalType": "string",
          "name": "_Article",
          "type": "string"
        }
      ],
      "name": "addNews",
      "outputs": [],
      "stateMutability": "payable",
      "type": "function"
    },
    {
      "inputs": [],
      "name": "evaluate",
      "outputs": [],
      "stateMutability": "nonpayable",
      "type": "function"
    },
    {
      "inputs": [],
      "name": "getAllNews",
      "outputs": [
        {
          "components": [
            {
              "internalType": "address payable",
              "name": "newsAgency",
              "type": "address"
            },
            {
              "internalType": "uint256",
              "name": "date",
              "type": "uint256"
            },
            {
              "internalType": "string",
              "name": "Title",
              "type": "string"
            },
            {
              "internalType": "string",
              "name": "Article",
              "type": "string"
            },
            {
              "internalType": "address payable[]",
              "name": "Upvote",
              "type": "address[]"
            },
            {
              "internalType": "address payable[]",
              "name": "Downvote",
              "type": "address[]"
            },
            {
              "internalType": "uint256",
              "name": "status",
              "type": "uint256"
            },
            {
              "internalType": "uint256",
              "name": "deadline",
              "type": "uint256"
            }
          ],
          "internalType": "struct FakeNews.News[]",
          "name": "",
          "type": "tuple[]"
        }
      ],
      "stateMutability": "view",
      "type": "function"
    },
    {
      "inputs": [],
      "name": "getBalance",
      "outputs": [
        {
          "internalType": "uint256",
          "name": "",
          "type": "uint256"
        }
      ],
      "stateMutability": "view",
      "type": "function"
    },
    {
      "inputs": [],
      "name": "getLatestNewsId",
      "outputs": [
        {
          "internalType": "uint256",
          "name": "",
          "type": "uint256"
        }
      ],
      "stateMutability": "view",
      "type": "function"
    },
    {
      "inputs": [
        {
          "internalType": "uint256",
          "name": "id",
          "type": "uint256"
        }
      ],
      "name": "getNews",
      "outputs": [
        {
          "internalType": "address",
          "name": "",
          "type": "address"
        },
        {
          "internalType": "uint256",
          "name": "",
          "type": "uint256"
        },
        {
          "internalType": "string",
          "name": "",
          "type": "string"
        },
        {
          "internalType": "string",
          "name": "",
          "type": "string"
        },
        {
          "internalType": "uint256",
          "name": "",
          "type": "uint256"
        },
        {
          "internalType": "uint256",
          "name": "",
          "type": "uint256"
        },
        {
          "internalType": "uint256",
          "name": "",
          "type": "uint256"
        }
      ],
      "stateMutability": "view",
      "type": "function"
    },
    {
      "inputs": [
        {
          "internalType": "uint256",
          "name": "",
          "type": "uint256"
        }
      ],
      "name": "newslist",
      "outputs": [
        {
          "internalType": "address payable",
          "name": "newsAgency",
          "type": "address"
        },
        {
          "internalType": "uint256",
          "name": "date",
          "type": "uint256"
        },
        {
          "internalType": "string",
          "name": "Title",
          "type": "string"
        },
        {
          "internalType": "string",
          "name": "Article",
          "type": "string"
        },
        {
          "internalType": "uint256",
          "name": "status",
          "type": "uint256"
        },
        {
          "internalType": "uint256",
          "name": "deadline",
          "type": "uint256"
        }
      ],
      "stateMutability": "view",
      "type": "function"
    },
    {
      "inputs": [],
      "name": "nextId",
      "outputs": [
        {
          "internalType": "uint256",
          "name": "",
          "type": "uint256"
        }
      ],
      "stateMutability": "view",
      "type": "function"
    },
    {
      "inputs": [],
      "name": "nextNewsEvaluate",
      "outputs": [
        {
          "internalType": "uint256",
          "name": "",
          "type": "uint256"
        }
      ],
      "stateMutability": "view",
      "type": "function"
    },
    {
      "inputs": [
        {
          "internalType": "address",
          "name": "",
          "type": "address"
        },
        {
          "internalType": "uint256",
          "name": "",
          "type": "uint256"
        }
      ],
      "name": "vote",
      "outputs": [
        {
          "internalType": "int256",
          "name": "",
          "type": "int256"
        }
      ],
      "stateMutability": "view",
      "type": "function"
    }
  ],
  "bytecode": "0x6080604052609660005534801561001557600080fd5b50612b04806100256000396000f3fe6080604052600436106100a75760003560e01c8063b04f0eb911610064578063b04f0eb91461019d578063ba53911b146101b9578063c59201f4146101fc578063cc48638114610218578063f584ecd114610243578063f748f4081461026e576100a7565b80630cf505a4146100ac57806312065fe0146100d75780635f74bbde1461010257806361b8ce8c1461013f5780636c3b90e81461016a5780637daa9efc14610186575b600080fd5b3480156100b857600080fd5b506100c16102b0565b6040516100ce9190611b08565b60405180910390f35b3480156100e357600080fd5b506100ec6102b6565b6040516100f99190611b08565b60405180910390f35b34801561010e57600080fd5b5061012960048036038101906101249190611bc1565b6102be565b6040516101369190611c1a565b60405180910390f35b34801561014b57600080fd5b506101546102e3565b6040516101619190611b08565b60405180910390f35b610184600480360381019061017f9190611db9565b6102e9565b005b34801561019257600080fd5b5061019b6104cf565b005b6101b760048036038101906101b29190611e44565b610cda565b005b3480156101c557600080fd5b506101e060048036038101906101db9190611e44565b61103b565b6040516101f39796959493929190611eff565b60405180910390f35b61021660048036038101906102119190611e44565b61123c565b005b34801561022457600080fd5b5061022d61159d565b60405161023a9190611b08565b60405180910390f35b34801561024f57600080fd5b506102586115b3565b604051610265919061221a565b60405180910390f35b34801561027a57600080fd5b5061029560048036038101906102909190611e44565b611928565b6040516102a79695949392919061224b565b60405180910390f35b60045481565b600047905090565b6003602052816000526040600020602052806000526040600020600091509150505481565b60025481565b662386f26fc100003373ffffffffffffffffffffffffffffffffffffffff163111610349576040517f08c379a00000000000000000000000000000000000000000000000000000000081526004016103409061232c565b60405180910390fd5b662386f26fc100003414610392576040517f08c379a000000000000000000000000000000000000000000000000000000000815260040161038990612398565b60405180910390fd5b8260016000600254815260200190815260200160002060000160006101000a81548173ffffffffffffffffffffffffffffffffffffffff021916908373ffffffffffffffffffffffffffffffffffffffff16021790555081600160006002548152602001908152602001600020600201908161040e91906125c4565b5080600160006002548152602001908152602001600020600301908161043491906125c4565b5042600160006002548152602001908152602001600020600101819055506000600160006002548152602001908152602001600020600601819055506000546001600060025481526020019081526020016000206001015461049691906126c5565b60016000600254815260200190815260200160002060070181905550600260008154809291906104c5906126f9565b9190505550505050565b600060045490504260016000838152602001908152602001600020600701541061052e576040517f08c379a00000000000000000000000000000000000000000000000000000000081526004016105259061278d565b60405180910390fd5b60036001600083815260200190815260200160002060050180549050600160008481526020019081526020016000206004018054905061056e91906126c5565b10156107e25760046000815480929190610587906126f9565b91905055506003600160008381526020019081526020016000206006018190555060005b600160008381526020019081526020016000206004018054905081101561067f576001600083815260200190815260200160002060040181815481106105f4576105f36127ad565b5b9060005260206000200160009054906101000a900473ffffffffffffffffffffffffffffffffffffffff1673ffffffffffffffffffffffffffffffffffffffff166108fc662386f26fc100009081150290604051600060405180830381858888f1935050505015801561066b573d6000803e3d6000fd5b508080610677906126f9565b9150506105ab565b5060005b6001600083815260200190815260200160002060050180549050811015610757576001600083815260200190815260200160002060050181815481106106cc576106cb6127ad565b5b9060005260206000200160009054906101000a900473ffffffffffffffffffffffffffffffffffffffff1673ffffffffffffffffffffffffffffffffffffffff166108fc662386f26fc100009081150290604051600060405180830381858888f19350505050158015610743573d6000803e3d6000fd5b50808061074f906126f9565b915050610683565b506001600082815260200190815260200160002060000160009054906101000a900473ffffffffffffffffffffffffffffffffffffffff1673ffffffffffffffffffffffffffffffffffffffff166108fc662386f26fc100009081150290604051600060405180830381858888f193505050501580156107db573d6000803e3d6000fd5b5050610cd8565b60056001600083815260200190815260200160002060050180549050600160008481526020019081526020016000206004018054905061082291906126c5565b600361082e91906127dc565b610838919061284d565b60016000838152602001908152602001600020600401805490501115610adb5760005b60016000838152602001908152602001600020600401805490508110156109b2576001600083815260200190815260200160002060040181815481106108a4576108a36127ad565b5b9060005260206000200160009054906101000a900473ffffffffffffffffffffffffffffffffffffffff1673ffffffffffffffffffffffffffffffffffffffff166108fc60018060008681526020019081526020016000206004018054905061090d91906126c5565b670de0b6b3a7640000600180600088815260200190815260200160002060050180549050600160008981526020019081526020016000206004018054905061095591906126c5565b61095f91906126c5565b61096991906127dc565b610973919061284d565b9081150290604051600060405180830381858888f1935050505015801561099e573d6000803e3d6000fd5b5080806109aa906126f9565b91505061085b565b506001600082815260200190815260200160002060000160009054906101000a900473ffffffffffffffffffffffffffffffffffffffff1673ffffffffffffffffffffffffffffffffffffffff166108fc600180600085815260200190815260200160002060040180549050610a2891906126c5565b670de0b6b3a76400006001806000878152602001908152602001600020600501805490506001600088815260200190815260200160002060040180549050610a7091906126c5565b610a7a91906126c5565b610a8491906127dc565b610a8e919061284d565b9081150290604051600060405180830381858888f19350505050158015610ab9573d6000803e3d6000fd5b5060026001600083815260200190815260200160002060060181905550610cbe565b600560016000838152602001908152602001600020600501805490506001600084815260200190815260200160002060040180549050610b1b91906126c5565b6003610b2791906127dc565b610b31919061284d565b60016000838152602001908152602001600020600501805490501115610cbd5760005b6001600083815260200190815260200160002060050180549050811015610ca057600160008381526020019081526020016000206005018181548110610b9d57610b9c6127ad565b5b9060005260206000200160009054906101000a900473ffffffffffffffffffffffffffffffffffffffff1673ffffffffffffffffffffffffffffffffffffffff166108fc6001600085815260200190815260200160002060050180549050670de0b6b3a76400006001806000888152602001908152602001600020600501805490506001600089815260200190815260200160002060040180549050610c4391906126c5565b610c4d91906126c5565b610c5791906127dc565b610c61919061284d565b9081150290604051600060405180830381858888f19350505050158015610c8c573d6000803e3d6000fd5b508080610c98906126f9565b915050610b54565b506001806000838152602001908152602001600020600601819055505b5b60046000815480929190610cd1906126f9565b9190505550505b565b42600160008381526020019081526020016000206007015411610d32576040517f08c379a0000000000000000000000000000000000000000000000000000000008152600401610d29906128ca565b60405180910390fd5b6000600360003373ffffffffffffffffffffffffffffffffffffffff1673ffffffffffffffffffffffffffffffffffffffff16815260200190815260200160002060008381526020019081526020016000205414610dc5576040517f08c379a0000000000000000000000000000000000000000000000000000000008152600401610dbc90612936565b60405180910390fd5b662386f26fc100003373ffffffffffffffffffffffffffffffffffffffff163111610e25576040517f08c379a0000000000000000000000000000000000000000000000000000000008152600401610e1c906129a2565b60405180910390fd5b6000600160008381526020019081526020016000206006015414610e7e576040517f08c379a0000000000000000000000000000000000000000000000000000000008152600401610e7590612a0e565b60405180910390fd5b662386f26fc100003414610ec7576040517f08c379a0000000000000000000000000000000000000000000000000000000008152600401610ebe90612398565b60405180910390fd5b6001600082815260200190815260200160002060000160009054906101000a900473ffffffffffffffffffffffffffffffffffffffff1673ffffffffffffffffffffffffffffffffffffffff163373ffffffffffffffffffffffffffffffffffffffff1603610f6b576040517f08c379a0000000000000000000000000000000000000000000000000000000008152600401610f6290612a7a565b60405180910390fd5b6001600360003373ffffffffffffffffffffffffffffffffffffffff1673ffffffffffffffffffffffffffffffffffffffff16815260200190815260200160002060008381526020019081526020016000208190555060016000828152602001908152602001600020600501339080600181540180825580915050600190039060005260206000200160009091909190916101000a81548173ffffffffffffffffffffffffffffffffffffffff021916908373ffffffffffffffffffffffffffffffffffffffff16021790555050565b60008060608060008060006001600089815260200190815260200160002060000160009054906101000a900473ffffffffffffffffffffffffffffffffffffffff16600160008a815260200190815260200160002060010154600160008b8152602001908152602001600020600201600160008c8152602001908152602001600020600301600160008d815260200190815260200160002060040180549050600160008e815260200190815260200160002060050180549050600160008f815260200190815260200160002060060154848054611117906123e7565b80601f0160208091040260200160405190810160405280929190818152602001828054611143906123e7565b80156111905780601f1061116557610100808354040283529160200191611190565b820191906000526020600020905b81548152906001019060200180831161117357829003601f168201915b505050505094508380546111a3906123e7565b80601f01602080910402602001604051908101604052809291908181526020018280546111cf906123e7565b801561121c5780601f106111f15761010080835404028352916020019161121c565b820191906000526020600020905b8154815290600101906020018083116111ff57829003601f168201915b505050505093509650965096509650965096509650919395979092949650565b42600160008381526020019081526020016000206007015411611294576040517f08c379a000000000000000000000000000000000000000000000000000000000815260040161128b906128ca565b60405180910390fd5b6000600360003373ffffffffffffffffffffffffffffffffffffffff1673ffffffffffffffffffffffffffffffffffffffff16815260200190815260200160002060008381526020019081526020016000205414611327576040517f08c379a000000000000000000000000000000000000000000000000000000000815260040161131e90612936565b60405180910390fd5b662386f26fc100003373ffffffffffffffffffffffffffffffffffffffff163111611387576040517f08c379a000000000000000000000000000000000000000000000000000000000815260040161137e906129a2565b60405180910390fd5b60006001600083815260200190815260200160002060060154146113e0576040517f08c379a00000000000000000000000000000000000000000000000000000000081526004016113d790612a0e565b60405180910390fd5b662386f26fc100003414611429576040517f08c379a000000000000000000000000000000000000000000000000000000000815260040161142090612398565b60405180910390fd5b6001600082815260200190815260200160002060000160009054906101000a900473ffffffffffffffffffffffffffffffffffffffff1673ffffffffffffffffffffffffffffffffffffffff163373ffffffffffffffffffffffffffffffffffffffff16036114cd576040517f08c379a00000000000000000000000000000000000000000000000000000000081526004016114c490612a7a565b60405180910390fd5b6001600360003373ffffffffffffffffffffffffffffffffffffffff1673ffffffffffffffffffffffffffffffffffffffff16815260200190815260200160002060008381526020019081526020016000208190555060016000828152602001908152602001600020600401339080600181540180825580915050600190039060005260206000200160009091909190916101000a81548173ffffffffffffffffffffffffffffffffffffffff021916908373ffffffffffffffffffffffffffffffffffffffff16021790555050565b600060016002546115ae9190612a9a565b905090565b6060600060025467ffffffffffffffff8111156115d3576115d2611c8e565b5b60405190808252806020026020018201604052801561160c57816020015b6115f9611a94565b8152602001906001900390816115f15790505b50905060005b6002548110156119205760016000828152602001908152602001600020604051806101000160405290816000820160009054906101000a900473ffffffffffffffffffffffffffffffffffffffff1673ffffffffffffffffffffffffffffffffffffffff1673ffffffffffffffffffffffffffffffffffffffff168152602001600182015481526020016002820180546116ab906123e7565b80601f01602080910402602001604051908101604052809291908181526020018280546116d7906123e7565b80156117245780601f106116f957610100808354040283529160200191611724565b820191906000526020600020905b81548152906001019060200180831161170757829003601f168201915b5050505050815260200160038201805461173d906123e7565b80601f0160208091040260200160405190810160405280929190818152602001828054611769906123e7565b80156117b65780601f1061178b576101008083540402835291602001916117b6565b820191906000526020600020905b81548152906001019060200180831161179957829003601f168201915b505050505081526020016004820180548060200260200160405190810160405280929190818152602001828054801561184457602002820191906000526020600020905b8160009054906101000a900473ffffffffffffffffffffffffffffffffffffffff1673ffffffffffffffffffffffffffffffffffffffff16815260200190600101908083116117fa575b50505050508152602001600582018054806020026020016040519081016040528092919081815260200182805480156118d257602002820191906000526020600020905b8160009054906101000a900473ffffffffffffffffffffffffffffffffffffffff1673ffffffffffffffffffffffffffffffffffffffff1681526020019060010190808311611888575b5050505050815260200160068201548152602001600782015481525050828281518110611902576119016127ad565b5b60200260200101819052508080611918906126f9565b915050611612565b508091505090565b60016020528060005260406000206000915090508060000160009054906101000a900473ffffffffffffffffffffffffffffffffffffffff1690806001015490806002018054611977906123e7565b80601f01602080910402602001604051908101604052809291908181526020018280546119a3906123e7565b80156119f05780601f106119c5576101008083540402835291602001916119f0565b820191906000526020600020905b8154815290600101906020018083116119d357829003601f168201915b505050505090806003018054611a05906123e7565b80601f0160208091040260200160405190810160405280929190818152602001828054611a31906123e7565b8015611a7e5780601f10611a5357610100808354040283529160200191611a7e565b820191906000526020600020905b815481529060010190602001808311611a6157829003601f168201915b5050505050908060060154908060070154905086565b604051806101000160405280600073ffffffffffffffffffffffffffffffffffffffff168152602001600081526020016060815260200160608152602001606081526020016060815260200160008152602001600081525090565b6000819050919050565b611b0281611aef565b82525050565b6000602082019050611b1d6000830184611af9565b92915050565b6000604051905090565b600080fd5b600080fd5b600073ffffffffffffffffffffffffffffffffffffffff82169050919050565b6000611b6282611b37565b9050919050565b611b7281611b57565b8114611b7d57600080fd5b50565b600081359050611b8f81611b69565b92915050565b611b9e81611aef565b8114611ba957600080fd5b50565b600081359050611bbb81611b95565b92915050565b60008060408385031215611bd857611bd7611b2d565b5b6000611be685828601611b80565b9250506020611bf785828601611bac565b9150509250929050565b6000819050919050565b611c1481611c01565b82525050565b6000602082019050611c2f6000830184611c0b565b92915050565b6000611c4082611b37565b9050919050565b611c5081611c35565b8114611c5b57600080fd5b50565b600081359050611c6d81611c47565b92915050565b600080fd5b600080fd5b6000601f19601f8301169050919050565b7f4e487b7100000000000000000000000000000000000000000000000000000000600052604160045260246000fd5b611cc682611c7d565b810181811067ffffffffffffffff82111715611ce557611ce4611c8e565b5b80604052505050565b6000611cf8611b23565b9050611d048282611cbd565b919050565b600067ffffffffffffffff821115611d2457611d23611c8e565b5b611d2d82611c7d565b9050602081019050919050565b82818337600083830152505050565b6000611d5c611d5784611d09565b611cee565b905082815260208101848484011115611d7857611d77611c78565b5b611d83848285611d3a565b509392505050565b600082601f830112611da057611d9f611c73565b5b8135611db0848260208601611d49565b91505092915050565b600080600060608486031215611dd257611dd1611b2d565b5b6000611de086828701611c5e565b935050602084013567ffffffffffffffff811115611e0157611e00611b32565b5b611e0d86828701611d8b565b925050604084013567ffffffffffffffff811115611e2e57611e2d611b32565b5b611e3a86828701611d8b565b9150509250925092565b600060208284031215611e5a57611e59611b2d565b5b6000611e6884828501611bac565b91505092915050565b611e7a81611b57565b82525050565b600081519050919050565b600082825260208201905092915050565b60005b83811015611eba578082015181840152602081019050611e9f565b60008484015250505050565b6000611ed182611e80565b611edb8185611e8b565b9350611eeb818560208601611e9c565b611ef481611c7d565b840191505092915050565b600060e082019050611f14600083018a611e71565b611f216020830189611af9565b8181036040830152611f338188611ec6565b90508181036060830152611f478187611ec6565b9050611f566080830186611af9565b611f6360a0830185611af9565b611f7060c0830184611af9565b98975050505050505050565b600081519050919050565b600082825260208201905092915050565b6000819050602082019050919050565b611fb181611c35565b82525050565b611fc081611aef565b82525050565b600082825260208201905092915050565b6000611fe282611e80565b611fec8185611fc6565b9350611ffc818560208601611e9c565b61200581611c7d565b840191505092915050565b600081519050919050565b600082825260208201905092915050565b6000819050602082019050919050565b60006120488383611fa8565b60208301905092915050565b6000602082019050919050565b600061206c82612010565b612076818561201b565b93506120818361202c565b8060005b838110156120b2578151612099888261203c565b97506120a483612054565b925050600181019050612085565b5085935050505092915050565b6000610100830160008301516120d86000860182611fa8565b5060208301516120eb6020860182611fb7565b50604083015184820360408601526121038282611fd7565b9150506060830151848203606086015261211d8282611fd7565b915050608083015184820360808601526121378282612061565b91505060a083015184820360a08601526121518282612061565b91505060c083015161216660c0860182611fb7565b5060e083015161217960e0860182611fb7565b508091505092915050565b600061219083836120bf565b905092915050565b6000602082019050919050565b60006121b082611f7c565b6121ba8185611f87565b9350836020820285016121cc85611f98565b8060005b8581101561220857848403895281516121e98582612184565b94506121f483612198565b925060208a019950506001810190506121d0565b50829750879550505050505092915050565b6000602082019050818103600083015261223481846121a5565b905092915050565b61224581611c35565b82525050565b600060c082019050612260600083018961223c565b61226d6020830188611af9565b818103604083015261227f8187611ec6565b905081810360608301526122938186611ec6565b90506122a26080830185611af9565b6122af60a0830184611af9565b979650505050505050565b7f596f7520646f6e74206861766520656e6f756768206d6f6e6579286e6565642060008201527f302e303120657468657229000000000000000000000000000000000000000000602082015250565b6000612316602b83611e8b565b9150612321826122ba565b604082019050919050565b6000602082019050818103600083015261234581612309565b9050919050565b7f506c656173652070617920302e3031206574686572206f6e6c79000000000000600082015250565b6000612382601a83611e8b565b915061238d8261234c565b602082019050919050565b600060208201905081810360008301526123b181612375565b9050919050565b7f4e487b7100000000000000000000000000000000000000000000000000000000600052602260045260246000fd5b600060028204905060018216806123ff57607f821691505b602082108103612412576124116123b8565b5b50919050565b60008190508160005260206000209050919050565b60006020601f8301049050919050565b600082821b905092915050565b60006008830261247a7fffffffffffffffffffffffffffffffffffffffffffffffffffffffffffffffff8261243d565b612484868361243d565b95508019841693508086168417925050509392505050565b6000819050919050565b60006124c16124bc6124b784611aef565b61249c565b611aef565b9050919050565b6000819050919050565b6124db836124a6565b6124ef6124e7826124c8565b84845461244a565b825550505050565b600090565b6125046124f7565b61250f8184846124d2565b505050565b5b81811015612533576125286000826124fc565b600181019050612515565b5050565b601f8211156125785761254981612418565b6125528461242d565b81016020851015612561578190505b61257561256d8561242d565b830182612514565b50505b505050565b600082821c905092915050565b600061259b6000198460080261257d565b1980831691505092915050565b60006125b4838361258a565b9150826002028217905092915050565b6125cd82611e80565b67ffffffffffffffff8111156125e6576125e5611c8e565b5b6125f082546123e7565b6125fb828285612537565b600060209050601f83116001811461262e576000841561261c578287015190505b61262685826125a8565b86555061268e565b601f19841661263c86612418565b60005b828110156126645784890151825560018201915060208501945060208101905061263f565b86831015612681578489015161267d601f89168261258a565b8355505b6001600288020188555050505b505050505050565b7f4e487b7100000000000000000000000000000000000000000000000000000000600052601160045260246000fd5b60006126d082611aef565b91506126db83611aef565b92508282019050808211156126f3576126f2612696565b5b92915050565b600061270482611aef565b91507fffffffffffffffffffffffffffffffffffffffffffffffffffffffffffffffff820361273657612735612696565b5b600182019050919050565b7f54686520646561646c696e6520686173206e6f74207965742070617373656400600082015250565b6000612777601f83611e8b565b915061278282612741565b602082019050919050565b600060208201905081810360008301526127a68161276a565b9050919050565b7f4e487b7100000000000000000000000000000000000000000000000000000000600052603260045260246000fd5b60006127e782611aef565b91506127f283611aef565b925082820261280081611aef565b9150828204841483151761281757612816612696565b5b5092915050565b7f4e487b7100000000000000000000000000000000000000000000000000000000600052601260045260246000fd5b600061285882611aef565b915061286383611aef565b9250826128735761287261281e565b5b828204905092915050565b7f54686520646561646c696e652068617320706173736564000000000000000000600082015250565b60006128b4601783611e8b565b91506128bf8261287e565b602082019050919050565b600060208201905081810360008301526128e3816128a7565b9050919050565b7f596f75206861766520616c726561647920766f74656400000000000000000000600082015250565b6000612920601683611e8b565b915061292b826128ea565b602082019050919050565b6000602082019050818103600083015261294f81612913565b9050919050565b7f596f7520646f6e74206861766520656e6f756768206d6f6e6579000000000000600082015250565b600061298c601a83611e8b565b915061299782612956565b602082019050919050565b600060208201905081810360008301526129bb8161297f565b9050919050565b7f4e65777320616c7265616479206576616c756174656400000000000000000000600082015250565b60006129f8601683611e8b565b9150612a03826129c2565b602082019050919050565b60006020820190508181036000830152612a27816129eb565b9050919050565b7f546865206e657773207075626c69736865722063616e6e6f7420766f74650000600082015250565b6000612a64601e83611e8b565b9150612a6f82612a2e565b602082019050919050565b60006020820190508181036000830152612a9381612a57565b9050919050565b6000612aa582611aef565b9150612ab083611aef565b9250828203905081811115612ac857612ac7612696565b5b9291505056fea2646970667358221220fce12ae2fea4fadabcd0447ed71313c1a98ed6d95dca687df36fb2628e33029064736f6c63430008130033",
  "linkReferences": {},
  "deployedLinkReferences": {}
}